{"abi":[{"type":"constructor","inputs":[{"name":"_forwardTarget","type":"address","internalType":"address"}],"stateMutability":"nonpayable"},{"type":"receive","stateMutability":"payable"},{"type":"function","name":"allowance","inputs":[{"name":"owner","type":"address","internalType":"address"},{"name":"spender","type":"address","internalType":"address"}],"outputs":[{"name":"","type":"uint256","internalType":"uint256"}],"stateMutability":"view"},{"type":"function","name":"approve","inputs":[{"name":"spender","type":"address","internalType":"address"},{"name":"value","type":"uint256","internalType":"uint256"}],"outputs":[{"name":"","type":"bool","internalType":"bool"}],"stateMutability":"nonpayable"},{"type":"function","name":"balanceOf","inputs":[{"name":"account","type":"address","internalType":"address"}],"outputs":[{"name":"","type":"uint256","internalType":"uint256"}],"stateMutability":"view"},{"type":"function","name":"decimals","inputs":[],"outputs":[{"name":"","type":"uint8","internalType":"uint8"}],"stateMutability":"pure"},{"type":"function","name":"deposit","inputs":[],"outputs":[],"stateMutability":"payable"},{"type":"function","name":"depositTo","inputs":[{"name":"recipient","type":"address","internalType":"address"}],"outputs":[],"stateMutability":"payable"},{"type":"function","name":"forwardTarget","inputs":[],"outputs":[{"name":"","type":"address","internalType":"address"}],"stateMutability":"view"},{"type":"function","name":"name","inputs":[],"outputs":[{"name":"","type":"string","internalType":"string"}],"stateMutability":"view"},{"type":"function","name":"onForwardCallback","inputs":[],"outputs":[],"stateMutability":"pure"},{"type":"function","name":"setForwardTarget","inputs":[{"name":"_target","type":"address","internalType":"address"}],"outputs":[],"stateMutability":"nonpayable"},{"type":"function","name":"symbol","inputs":[],"outputs":[{"name":"","type":"string","internalType":"string"}],"stateMutability":"view"},{"type":"function","name":"totalBurned","inputs":[],"outputs":[{"name":"","type":"uint256","internalType":"uint256"}],"stateMutability":"view"},{"type":"function","name":"totalSupply","inputs":[],"outputs":[{"name":"","type":"uint256","internalType":"uint256"}],"stateMutability":"view"},{"type":"function","name":"transfer","inputs":[{"name":"to","type":"address","internalType":"address"},{"name":"value","type":"uint256","internalType":"uint256"}],"outputs":[{"name":"","type":"bool","internalType":"bool"}],"stateMutability":"nonpayable"},{"type":"function","name":"transferFrom","inputs":[{"name":"from","type":"address","internalType":"address"},{"name":"to","type":"address","internalType":"address"},{"name":"value","type":"uint256","internalType":"uint256"}],"outputs":[{"name":"","type":"bool","internalType":"bool"}],"stateMutability":"nonpayable"},{"type":"event","name":"Approval","inputs":[{"name":"owner","type":"address","indexed":true,"internalType":"address"},{"name":"spender","type":"address","indexed":true,"internalType":"address"},{"name":"value","type":"uint256","indexed":false,"internalType":"uint256"}],"anonymous":false},{"type":"event","name":"Burned","inputs":[{"name":"from","type":"address","indexed":true,"internalType":"address"},{"name":"amount","type":"uint256","indexed":false,"internalType":"uint256"}],"anonymous":false},{"type":"event","name":"Minted","inputs":[{"name":"to","type":"address","indexed":true,"internalType":"address"},{"name":"amount","type":"uint256","indexed":false,"internalType":"uint256"}],"anonymous":false},{"type":"event","name":"Transfer","inputs":[{"name":"from","type":"address","indexed":true,"internalType":"address"},{"name":"to","type":"address","indexed":true,"internalType":"address"},{"name":"value","type":"uint256","indexed":false,"internalType":"uint256"}],"anonymous":false},{"type":"error","name":"ERC20InsufficientAllowance","inputs":[{"name":"spender","type":"address","internalType":"address"},{"name":"allowance","type":"uint256","internalType":"uint256"},{"name":"needed","type":"uint256","internalType":"uint256"}]},{"type":"error","name":"ERC20InsufficientBalance","inputs":[{"name":"sender","type":"address","internalType":"address"},{"name":"balance","type":"uint256","internalType":"uint256"},{"name":"needed","type":"uint256","internalType":"uint256"}]},{"type":"error","name":"ERC20InvalidApprover","inputs":[{"name":"approver","type":"address","internalType":"address"}]},{"type":"error","name":"ERC20InvalidReceiver","inputs":[{"name":"receiver","type":"address","internalType":"address"}]},{"type":"error","name":"ERC20InvalidSender","inputs":[{"name":"sender","type":"address","internalType":"address"}]},{"type":"error","name":"ERC20InvalidSpender","inputs":[{"name":"spender","type":"address","internalType":"address"}]},{"type":"error","name":"ForwardFailed","inputs":[]},{"type":"error","name":"ZeroDeposit","inputs":[]}],"bytecode":{"object":"0x608060405234801562000010575f80fd5b5060405162000c8238038062000c828339810160408190526200003391620000a8565b6040805180820182526004808252630848aa8960e31b60208084018290528451808601909552918452908301529060036200006f838262000175565b5060046200007e828262000175565b5050600580546001600160a01b0319166001600160a01b0393909316929092179091555062000241565b5f60208284031215620000b9575f80fd5b81516001600160a01b0381168114620000d0575f80fd5b9392505050565b634e487b7160e01b5f52604160045260245ffd5b600181811c908216806200010057607f821691505b6020821081036200011f57634e487b7160e01b5f52602260045260245ffd5b50919050565b601f8211156200017057805f5260205f20601f840160051c810160208510156200014c5750805b601f840160051c820191505b818110156200016d575f815560010162000158565b50505b505050565b81516001600160401b03811115620001915762000191620000d7565b620001a981620001a28454620000eb565b8462000125565b602080601f831160018114620001df575f8415620001c75750858301515b5f19600386901b1c1916600185901b17855562000239565b5f85815260208120601f198616915b828110156200020f57888601518255948401946001909101908401620001ee565b50858210156200022d57878501515f19600388901b60f8161c191681555b505060018460011b0185555b505050505050565b610a33806200024f5f395ff3fe6080604052600436106100e7575f3560e01c806370a0823111610087578063b760faf911610057578063b760faf91461029a578063d0e30db0146102ad578063d89135cd146102b5578063dd62ed3e146102c9575f80fd5b806370a08231146101fc57806395d89b4114610230578063a9059cbb14610244578063a94cc1a014610263575f80fd5b806323b872dd116100c257806323b872dd14610172578063313ce567146101915780634241595c146101ac578063537244c6146101c0575f80fd5b806306fdde03146100fb578063095ea7b31461012557806318160ddd14610154575f80fd5b366100f7576100f53361030d565b005b5f80fd5b348015610106575f80fd5b5061010f61043f565b60405161011c919061088d565b60405180910390f35b348015610130575f80fd5b5061014461013f3660046108f4565b6104cf565b604051901515815260200161011c565b34801561015f575f80fd5b506002545b60405190815260200161011c565b34801561017d575f80fd5b5061014461018c36600461091c565b6104e8565b34801561019c575f80fd5b506040516012815260200161011c565b3480156101b7575f80fd5b506100f561050b565b3480156101cb575f80fd5b506100f56101da366004610955565b600580546001600160a01b0319166001600160a01b0392909216919091179055565b348015610207575f80fd5b50610164610216366004610955565b6001600160a01b03165f9081526020819052604090205490565b34801561023b575f80fd5b5061010f610546565b34801561024f575f80fd5b5061014461025e3660046108f4565b610555565b34801561026e575f80fd5b50600554610282906001600160a01b031681565b6040516001600160a01b03909116815260200161011c565b6100f56102a8366004610955565b610562565b6100f561056f565b3480156102c0575f80fd5b50600654610164565b3480156102d4575f80fd5b506101646102e3366004610975565b6001600160a01b039182165f90815260016020908152604080832093909416825291909152205490565b5f3480820361032f576040516356316e8760e01b815260040160405180910390fd5b6005546040515f916001600160a01b03169083908381818185875af1925050503d805f8114610379576040519150601f19603f3d011682016040523d82523d5f602084013e61037e565b606091505b50509050806103a05760405163096dc0e160e01b815260040160405180910390fd5b6103aa848361057b565b8160065f8282546103bb91906109a6565b909155505060405182815233907f696de425f79f4a40bc6d2122ca50507f0efbeabbff86a84871b7196ab8ea8df79060200160405180910390a2836001600160a01b03167f30385c845b448a36257a6a1716e6ad2e1bc2cbe333cde1e69fe849ad6511adfe8360405161043091815260200190565b60405180910390a25092915050565b60606003805461044e906109c5565b80601f016020809104026020016040519081016040528092919081815260200182805461047a906109c5565b80156104c55780601f1061049c576101008083540402835291602001916104c5565b820191905f5260205f20905b8154815290600101906020018083116104a857829003601f168201915b5050505050905090565b5f336104dc8185856105af565b60019150505b92915050565b5f336104f58582856105c1565b61050085858561063c565b506001949350505050565b60405162461bcd60e51b815260206004820152600b60248201526a6e6f2d63616c6c6261636b60a81b60448201526064015b60405180910390fd5b60606004805461044e906109c5565b5f336104dc81858561063c565b61056b8161030d565b5050565b6105783361030d565b50565b6001600160a01b0382166105a45760405163ec442f0560e01b81525f600482015260240161053d565b61056b5f8383610695565b6105bc83838360016107bb565b505050565b6001600160a01b038381165f908152600160209081526040808320938616835292905220545f198114610636578181101561062857604051637dc7a0d960e11b81526001600160a01b0384166004820152602481018290526044810183905260640161053d565b61063684848484035f6107bb565b50505050565b6001600160a01b03831661066557604051634b637e8f60e11b81525f600482015260240161053d565b6001600160a01b03821661068e5760405163ec442f0560e01b81525f600482015260240161053d565b6105bc8383835b6001600160a01b0383166106bf578060025f8282546106b491906109a6565b9091555061072f9050565b6001600160a01b0383165f90815260208190526040902054818110156107115760405163391434e360e21b81526001600160a01b0385166004820152602481018290526044810183905260640161053d565b6001600160a01b0384165f9081526020819052604090209082900390555b6001600160a01b03821661074b57600280548290039055610769565b6001600160a01b0382165f9081526020819052604090208054820190555b816001600160a01b0316836001600160a01b03167fddf252ad1be2c89b69c2b068fc378daa952ba7f163c4a11628f55a4df523b3ef836040516107ae91815260200190565b60405180910390a3505050565b6001600160a01b0384166107e45760405163e602df0560e01b81525f600482015260240161053d565b6001600160a01b03831661080d57604051634a1406b160e11b81525f600482015260240161053d565b6001600160a01b038085165f908152600160209081526040808320938716835292905220829055801561063657826001600160a01b0316846001600160a01b03167f8c5be1e5ebec7d5bd14f71427d1e84f3dd0314c0f7b2291e5b200ac8c7c3b9258460405161087f91815260200190565b60405180910390a350505050565b5f602080835283518060208501525f5b818110156108b95785810183015185820160400152820161089d565b505f604082860101526040601f19601f8301168501019250505092915050565b80356001600160a01b03811681146108ef575f80fd5b919050565b5f8060408385031215610905575f80fd5b61090e836108d9565b946020939093013593505050565b5f805f6060848603121561092e575f80fd5b610937846108d9565b9250610945602085016108d9565b9150604084013590509250925092565b5f60208284031215610965575f80fd5b61096e826108d9565b9392505050565b5f8060408385031215610986575f80fd5b61098f836108d9565b915061099d602084016108d9565b90509250929050565b808201808211156104e257634e487b7160e01b5f52601160045260245ffd5b600181811c908216806109d957607f821691505b6020821081036109f757634e487b7160e01b5f52602260045260245ffd5b5091905056fea26469706673582212202476287a13c6c684995c6fdb54d366d0f54ee70793190a818135607cc5acf61c64736f6c63430008180033","linkReferences":{}},"methodIdentifiers":{"allowance(address,address)":"dd62ed3e","approve(address,uint256)":"095ea7b3","balanceOf(address)":"70a08231","decimals()":"313ce567","deposit()":"d0e30db0","depositTo(address)":"b760faf9","forwardTarget()":"a94cc1a0","name()":"06fdde03","onForwardCallback()":"4241595c","setForwardTarget(address)":"537244c6","symbol()":"95d89b41","totalBurned()":"d89135cd","totalSupply()":"18160ddd","transfer(address,uint256)":"a9059cbb","transferFrom(address,address,uint256)":"23b872dd"},"id":29}