{"abi":[{"type":"constructor","inputs":[{"name":"_beth","type":"address","internalType":"contract BETH"}],"stateMutability":"nonpayable"},{"type":"function","name":"beth","inputs":[],"outputs":[{"name":"","type":"address","internalType":"contract BETH"}],"stateMutability":"view"},{"type":"function","name":"deposit","inputs":[{"name":"amount","type":"uint128","internalType":"uint128"}],"outputs":[],"stateMutability":"nonpayable"},{"type":"function","name":"depositTo","inputs":[{"name":"recipient","type":"address","internalType":"address"},{"name":"amount","type":"uint128","internalType":"uint128"}],"outputs":[],"stateMutability":"nonpayable"}],"bytecode":{"object":"0x60a060405234801561000f575f80fd5b506040516106e13803806106e183398101604081905261002e9161003f565b6001600160a01b031660805261006c565b5f6020828403121561004f575f80fd5b81516001600160a01b0381168114610065575f80fd5b9392505050565b6080516106506100915f395f818160700152818161011301526101af01526106505ff3fe608060405234801561000f575f80fd5b506004361061003f575f3560e01c8063184274fc1461004357806354469aea146100585780635e730d3b1461006b575b5f80fd5b610056610051366004610512565b6100ae565b005b610056610066366004610550565b61017a565b6100927f000000000000000000000000000000000000000000000000000000000000000081565b6040516001600160a01b03909116815260200160405180910390f35b6001600160a01b0382166100c157600191505b6100df816001600160801b03166001683635c9adc5dea00000610229565b90506100f430826001600160801b031661026c565b60405163b760faf960e01b81526001600160a01b0383811660048301527f0000000000000000000000000000000000000000000000000000000000000000169063b760faf9906001600160801b038416906024015f604051808303818588803b15801561015f575f80fd5b505af1158015610171573d5f803e3d5ffd5b50505050505050565b610198816001600160801b03166001683635c9adc5dea00000610229565b90506101ad30826001600160801b031661026c565b7f00000000000000000000000000000000000000000000000000000000000000006001600160a01b031663d0e30db0826001600160801b03166040518263ffffffff1660e01b81526004015f604051808303818588803b15801561020f575f80fd5b505af1158015610221573d5f803e3d5ffd5b505050505050565b5f6102358484846102c5565b90506102656040518060400160405280600c81526020016b109bdd5b99081c995cdd5b1d60a21b81525082610482565b9392505050565b60405163c88a5e6d60e01b81526001600160a01b038316600482015260248101829052737109709ecfa91a80626ff3989d68f67f5b1dd12d9063c88a5e6d906044015f604051808303815f87803b15801561020f575f80fd5b5f818311156103405760405162461bcd60e51b815260206004820152603e60248201527f5374645574696c7320626f756e642875696e743235362c75696e743235362c7560448201527f696e74323536293a204d6178206973206c657373207468616e206d696e2e0000606482015260840160405180910390fd5b8284101580156103505750818411155b1561035c575082610265565b5f610367848461057d565b610372906001610596565b90506003851115801561038457508481115b1561039b576103938585610596565b915050610265565b6103a760035f1961057d565b85101580156103bf57506103bc855f1961057d565b81115b156103d9576103cf855f1961057d565b610393908461057d565b8285111561042c575f6103ec848761057d565b90505f6103f983836105a9565b9050805f0361040d57849350505050610265565b60016104198288610596565b610423919061057d565b9350505061047a565b8385101561047a575f61043f868661057d565b90505f61044c83836105a9565b9050805f0361046057859350505050610265565b61046a818661057d565b610475906001610596565b935050505b509392505050565b6104c782826040516024016104989291906105c8565b60408051601f198184030181529190526020810180516001600160e01b0316632d839cb360e21b1790526104cb565b5050565b6104d4816104d7565b50565b80516a636f6e736f6c652e6c6f67602083015f808483855afa5050505050565b80356001600160801b038116811461050d575f80fd5b919050565b5f8060408385031215610523575f80fd5b82356001600160a01b0381168114610539575f80fd5b9150610547602084016104f7565b90509250929050565b5f60208284031215610560575f80fd5b610265826104f7565b634e487b7160e01b5f52601160045260245ffd5b8181038181111561059057610590610569565b92915050565b8082018082111561059057610590610569565b5f826105c357634e487b7160e01b5f52601260045260245ffd5b500690565b604081525f83518060408401525f5b818110156105f457602081870181015160608684010152016105d7565b505f606082850101526060601f19601f830116840101915050826020830152939250505056fea2646970667358221220da7a5641c372d962729787c227c57d0ad54b44b545ae5c89e6a9f14c2e358ea464736f6c63430008180033","linkReferences":{}},"methodIdentifiers":{"beth()":"5e730d3b","deposit(uint128)":"54469aea","depositTo(address,uint128)":"184274fc"},"id":37}