{"abi":[{"type":"constructor","inputs":[{"name":"_beth","type":"address","internalType":"contract BETH"}],"stateMutability":"nonpayable"},{"type":"function","name":"beth","inputs":[],"outputs":[{"name":"","type":"address","internalType":"contract BETH"}],"stateMutability":"view"},{"type":"function","name":"deposit","inputs":[{"name":"amount","type":"uint128","internalType":"uint128"}],"outputs":[],"stateMutability":"nonpayable"},{"type":"function","name":"depositTo","inputs":[{"name":"recipient","type":"address","internalType":"address"},{"name":"amount","type":"uint128","internalType":"uint128"}],"outputs":[],"stateMutability":"nonpayable"}],"bytecode":{"object":"0x60a060405234801561001057600080fd5b506040516106e83803806106e883398101604081905261002f91610040565b6001600160a01b0316608052610070565b60006020828403121561005257600080fd5b81516001600160a01b038116811461006957600080fd5b9392505050565b6080516106506100986000396000818160730152818161011601526101b601526106506000f3fe608060405234801561001057600080fd5b50600436106100415760003560e01c8063184274fc1461004657806354469aea1461005b5780635e730d3b1461006e575b600080fd5b61005961005436600461052e565b6100b1565b005b61005961006936600461056f565b610181565b6100957f000000000000000000000000000000000000000000000000000000000000000081565b6040516001600160a01b03909116815260200160405180910390f35b6001600160a01b0382166100c457600191505b6100e2816001600160801b03166001683635c9adc5dea00000610234565b90506100f730826001600160801b0316610278565b60405163b760faf960e01b81526001600160a01b0383811660048301527f0000000000000000000000000000000000000000000000000000000000000000169063b760faf9906001600160801b038416906024016000604051808303818588803b15801561016457600080fd5b505af1158015610178573d6000803e3d6000fd5b50505050505050565b61019f816001600160801b03166001683635c9adc5dea00000610234565b90506101b430826001600160801b0316610278565b7f00000000000000000000000000000000000000000000000000000000000000006001600160a01b031663d0e30db0826001600160801b03166040518263ffffffff1660e01b81526004016000604051808303818588803b15801561021857600080fd5b505af115801561022c573d6000803e3d6000fd5b505050505050565b60006102418484846102d4565b90506102716040518060400160405280600c81526020016b109bdd5b99081c995cdd5b1d60a21b8152508261049c565b9392505050565b60405163c88a5e6d60e01b81526001600160a01b038316600482015260248101829052737109709ecfa91a80626ff3989d68f67f5b1dd12d9063c88a5e6d90604401600060405180830381600087803b15801561021857600080fd5b6000818311156103505760405162461bcd60e51b815260206004820152603e60248201527f5374645574696c7320626f756e642875696e743235362c75696e743235362c7560448201527f696e74323536293a204d6178206973206c657373207468616e206d696e2e0000606482015260840160405180910390fd5b8284101580156103605750818411155b1561036c575082610271565b600061037884846105a0565b6103839060016105b9565b90506003851115801561039557508481115b156103ac576103a485856105b9565b915050610271565b6103b960036000196105a0565b85101580156103d257506103cf856000196105a0565b81115b156103ed576103e3856000196105a0565b6103a490846105a0565b8285111561044357600061040184876105a0565b9050600061040f83836105cc565b90508060000361042457849350505050610271565b600161043082886105b9565b61043a91906105a0565b93505050610494565b8385101561049457600061045786866105a0565b9050600061046583836105cc565b90508060000361047a57859350505050610271565b61048481866105a0565b61048f9060016105b9565b935050505b509392505050565b6104e182826040516024016104b29291906105ee565b60408051601f198184030181529190526020810180516001600160e01b0316632d839cb360e21b1790526104e5565b5050565b6104ee816104f1565b50565b80516a636f6e736f6c652e6c6f67602083016000808483855afa5050505050565b80356001600160801b038116811461052957600080fd5b919050565b6000806040838503121561054157600080fd5b82356001600160a01b038116811461055857600080fd5b915061056660208401610512565b90509250929050565b60006020828403121561058157600080fd5b61027182610512565b634e487b7160e01b600052601160045260246000fd5b818103818111156105b3576105b361058a565b92915050565b808201808211156105b3576105b361058a565b6000826105e957634e487b7160e01b600052601260045260246000fd5b500690565b604081526000835180604084015260005b8181101561061c57602081870181015160608684010152016105ff565b506000606082850101526060601f19601f830116840101915050826020830152939250505056fea164736f6c6343000818000a","linkReferences":{}},"methodIdentifiers":{"beth()":"5e730d3b","deposit(uint128)":"54469aea","depositTo(address,uint128)":"184274fc"},"id":47}