{"abi":[{"type":"constructor","inputs":[],"stateMutability":"nonpayable"},{"type":"receive","stateMutability":"payable"},{"type":"function","name":"ETH_BURN_ADDRESS","inputs":[],"outputs":[{"name":"","type":"address","internalType":"address"}],"stateMutability":"view"},{"type":"function","name":"allowance","inputs":[{"name":"owner","type":"address","internalType":"address"},{"name":"spender","type":"address","internalType":"address"}],"outputs":[{"name":"","type":"uint256","internalType":"uint256"}],"stateMutability":"view"},{"type":"function","name":"approve","inputs":[{"name":"spender","type":"address","internalType":"address"},{"name":"value","type":"uint256","internalType":"uint256"}],"outputs":[{"name":"","type":"bool","internalType":"bool"}],"stateMutability":"nonpayable"},{"type":"function","name":"balanceOf","inputs":[{"name":"account","type":"address","internalType":"address"}],"outputs":[{"name":"","type":"uint256","internalType":"uint256"}],"stateMutability":"view"},{"type":"function","name":"decimals","inputs":[],"outputs":[{"name":"","type":"uint8","internalType":"uint8"}],"stateMutability":"pure"},{"type":"function","name":"deposit","inputs":[],"outputs":[],"stateMutability":"payable"},{"type":"function","name":"depositTo","inputs":[{"name":"recipient","type":"address","internalType":"address"}],"outputs":[],"stateMutability":"payable"},{"type":"function","name":"flush","inputs":[],"outputs":[],"stateMutability":"nonpayable"},{"type":"function","name":"name","inputs":[],"outputs":[{"name":"","type":"string","internalType":"string"}],"stateMutability":"view"},{"type":"function","name":"symbol","inputs":[],"outputs":[{"name":"","type":"string","internalType":"string"}],"stateMutability":"view"},{"type":"function","name":"totalBurned","inputs":[],"outputs":[{"name":"","type":"uint256","internalType":"uint256"}],"stateMutability":"view"},{"type":"function","name":"totalSupply","inputs":[],"outputs":[{"name":"","type":"uint256","internalType":"uint256"}],"stateMutability":"view"},{"type":"function","name":"transfer","inputs":[{"name":"to","type":"address","internalType":"address"},{"name":"value","type":"uint256","internalType":"uint256"}],"outputs":[{"name":"","type":"bool","internalType":"bool"}],"stateMutability":"nonpayable"},{"type":"function","name":"transferFrom","inputs":[{"name":"from","type":"address","internalType":"address"},{"name":"to","type":"address","internalType":"address"},{"name":"value","type":"uint256","internalType":"uint256"}],"outputs":[{"name":"","type":"bool","internalType":"bool"}],"stateMutability":"nonpayable"},{"type":"event","name":"Approval","inputs":[{"name":"owner","type":"address","indexed":true,"internalType":"address"},{"name":"spender","type":"address","indexed":true,"internalType":"address"},{"name":"value","type":"uint256","indexed":false,"internalType":"uint256"}],"anonymous":false},{"type":"event","name":"Burned","inputs":[{"name":"from","type":"address","indexed":true,"internalType":"address"},{"name":"amount","type":"uint256","indexed":false,"internalType":"uint256"}],"anonymous":false},{"type":"event","name":"Minted","inputs":[{"name":"to","type":"address","indexed":true,"internalType":"address"},{"name":"amount","type":"uint256","indexed":false,"internalType":"uint256"}],"anonymous":false},{"type":"event","name":"Transfer","inputs":[{"name":"from","type":"address","indexed":true,"internalType":"address"},{"name":"to","type":"address","indexed":true,"internalType":"address"},{"name":"value","type":"uint256","indexed":false,"internalType":"uint256"}],"anonymous":false},{"type":"error","name":"ERC20InsufficientAllowance","inputs":[{"name":"spender","type":"address","internalType":"address"},{"name":"allowance","type":"uint256","internalType":"uint256"},{"name":"needed","type":"uint256","internalType":"uint256"}]},{"type":"error","name":"ERC20InsufficientBalance","inputs":[{"name":"sender","type":"address","internalType":"address"},{"name":"balance","type":"uint256","internalType":"uint256"},{"name":"needed","type":"uint256","internalType":"uint256"}]},{"type":"error","name":"ERC20InvalidApprover","inputs":[{"name":"approver","type":"address","internalType":"address"}]},{"type":"error","name":"ERC20InvalidReceiver","inputs":[{"name":"receiver","type":"address","internalType":"address"}]},{"type":"error","name":"ERC20InvalidSender","inputs":[{"name":"sender","type":"address","internalType":"address"}]},{"type":"error","name":"ERC20InvalidSpender","inputs":[{"name":"spender","type":"address","internalType":"address"}]},{"type":"error","name":"ForwardFailed","inputs":[]},{"type":"error","name":"ZeroDeposit","inputs":[]}],"bytecode":{"object":"0x608060405234801562000010575f80fd5b506040805180820182526004808252630848aa8960e31b60208084018290528451808601909552918452908301529060036200004d838262000103565b5060046200005c828262000103565b505050620001cf565b634e487b7160e01b5f52604160045260245ffd5b600181811c908216806200008e57607f821691505b602082108103620000ad57634e487b7160e01b5f52602260045260245ffd5b50919050565b601f821115620000fe57805f5260205f20601f840160051c81016020851015620000da5750805b601f840160051c820191505b81811015620000fb575f8155600101620000e6565b50505b505050565b81516001600160401b038111156200011f576200011f62000065565b620001378162000130845462000079565b84620000b3565b602080601f8311600181146200016d575f8415620001555750858301515b5f19600386901b1c1916600185901b178555620001c7565b5f85815260208120601f198616915b828110156200019d578886015182559484019460019091019084016200017c565b5085821015620001bb57878501515f19600388901b60f8161c191681555b505060018460011b0185555b505050505050565b610a6680620001dd5f395ff3fe6080604052600436106100dc575f3560e01c806370a082311161007c578063b760faf911610057578063b760faf914610249578063d0e30db01461025c578063d89135cd14610264578063dd62ed3e14610278575f80fd5b806370a08231146101e257806395d89b4114610216578063a9059cbb1461022a575f80fd5b806323b872dd116100b757806323b872dd14610167578063313ce567146101865780636a91d41a146101a15780636b9f96ea146101ce575f80fd5b806306fdde03146100f0578063095ea7b31461011a57806318160ddd14610149575f80fd5b366100ec576100ea336102bc565b005b5f80fd5b3480156100fb575f80fd5b506101046103e5565b60405161011191906108c0565b60405180910390f35b348015610125575f80fd5b50610139610134366004610927565b610475565b6040519015158152602001610111565b348015610154575f80fd5b506002545b604051908152602001610111565b348015610172575f80fd5b5061013961018136600461094f565b61048e565b348015610191575f80fd5b5060405160128152602001610111565b3480156101ac575f80fd5b506101b661dead81565b6040516001600160a01b039091168152602001610111565b3480156101d9575f80fd5b506100ea6104b1565b3480156101ed575f80fd5b506101596101fc366004610988565b6001600160a01b03165f9081526020819052604090205490565b348015610221575f80fd5b50610104610574565b348015610235575f80fd5b50610139610244366004610927565b610583565b6100ea610257366004610988565b610590565b6100ea61059d565b34801561026f575f80fd5b50600554610159565b348015610283575f80fd5b506101596102923660046109a8565b6001600160a01b039182165f90815260016020908152604080832093909416825291909152205490565b5f348082036102de576040516356316e8760e01b815260040160405180910390fd5b6040515f9061dead9083908381818185875af1925050503d805f811461031f576040519150601f19603f3d011682016040523d82523d5f602084013e610324565b606091505b50509050806103465760405163096dc0e160e01b815260040160405180910390fd5b61035084836105a9565b8160055f82825461036191906109d9565b909155505060405182815233907f696de425f79f4a40bc6d2122ca50507f0efbeabbff86a84871b7196ab8ea8df79060200160405180910390a2836001600160a01b03167f30385c845b448a36257a6a1716e6ad2e1bc2cbe333cde1e69fe849ad6511adfe836040516103d691815260200190565b60405180910390a25092915050565b6060600380546103f4906109f8565b80601f0160208091040260200160405190810160405280929190818152602001828054610420906109f8565b801561046b5780601f106104425761010080835404028352916020019161046b565b820191905f5260205f20905b81548152906001019060200180831161044e57829003601f168201915b5050505050905090565b5f336104828185856105e2565b60019150505b92915050565b5f3361049b8582856105f4565b6104a685858561066f565b506001949350505050565b475f8190036104bd5750565b6040515f9061dead9083908381818185875af1925050503d805f81146104fe576040519150601f19603f3d011682016040523d82523d5f602084013e610503565b606091505b50509050806105255760405163096dc0e160e01b815260040160405180910390fd5b8160055f82825461053691906109d9565b909155505060405182815230907f696de425f79f4a40bc6d2122ca50507f0efbeabbff86a84871b7196ab8ea8df79060200160405180910390a25050565b6060600480546103f4906109f8565b5f3361048281858561066f565b610599816102bc565b5050565b6105a6336102bc565b50565b6001600160a01b0382166105d75760405163ec442f0560e01b81525f60048201526024015b60405180910390fd5b6105995f83836106c8565b6105ef83838360016107ee565b505050565b6001600160a01b038381165f908152600160209081526040808320938616835292905220545f198114610669578181101561065b57604051637dc7a0d960e11b81526001600160a01b038416600482015260248101829052604481018390526064016105ce565b61066984848484035f6107ee565b50505050565b6001600160a01b03831661069857604051634b637e8f60e11b81525f60048201526024016105ce565b6001600160a01b0382166106c15760405163ec442f0560e01b81525f60048201526024016105ce565b6105ef8383835b6001600160a01b0383166106f2578060025f8282546106e791906109d9565b909155506107629050565b6001600160a01b0383165f90815260208190526040902054818110156107445760405163391434e360e21b81526001600160a01b038516600482015260248101829052604481018390526064016105ce565b6001600160a01b0384165f9081526020819052604090209082900390555b6001600160a01b03821661077e5760028054829003905561079c565b6001600160a01b0382165f9081526020819052604090208054820190555b816001600160a01b0316836001600160a01b03167fddf252ad1be2c89b69c2b068fc378daa952ba7f163c4a11628f55a4df523b3ef836040516107e191815260200190565b60405180910390a3505050565b6001600160a01b0384166108175760405163e602df0560e01b81525f60048201526024016105ce565b6001600160a01b03831661084057604051634a1406b160e11b81525f60048201526024016105ce565b6001600160a01b038085165f908152600160209081526040808320938716835292905220829055801561066957826001600160a01b0316846001600160a01b03167f8c5be1e5ebec7d5bd14f71427d1e84f3dd0314c0f7b2291e5b200ac8c7c3b925846040516108b291815260200190565b60405180910390a350505050565b5f602080835283518060208501525f5b818110156108ec578581018301518582016040015282016108d0565b505f604082860101526040601f19601f8301168501019250505092915050565b80356001600160a01b0381168114610922575f80fd5b919050565b5f8060408385031215610938575f80fd5b6109418361090c565b946020939093013593505050565b5f805f60608486031215610961575f80fd5b61096a8461090c565b92506109786020850161090c565b9150604084013590509250925092565b5f60208284031215610998575f80fd5b6109a18261090c565b9392505050565b5f80604083850312156109b9575f80fd5b6109c28361090c565b91506109d06020840161090c565b90509250929050565b8082018082111561048857634e487b7160e01b5f52601160045260245ffd5b600181811c90821680610a0c57607f821691505b602082108103610a2a57634e487b7160e01b5f52602260045260245ffd5b5091905056fea2646970667358221220813acaae882e87af24ac9524fce355e3052b8f6c730cbc25273f75515014284f64736f6c63430008180033","linkReferences":{}},"methodIdentifiers":{"ETH_BURN_ADDRESS()":"6a91d41a","allowance(address,address)":"dd62ed3e","approve(address,uint256)":"095ea7b3","balanceOf(address)":"70a08231","decimals()":"313ce567","deposit()":"d0e30db0","depositTo(address)":"b760faf9","flush()":"6b9f96ea","name()":"06fdde03","symbol()":"95d89b41","totalBurned()":"d89135cd","totalSupply()":"18160ddd","transfer(address,uint256)":"a9059cbb","transferFrom(address,address,uint256)":"23b872dd"},"id":33}