{"abi":[{"type":"constructor","inputs":[],"stateMutability":"nonpayable"},{"type":"receive","stateMutability":"payable"},{"type":"function","name":"ETH_BURN_ADDRESS","inputs":[],"outputs":[{"name":"","type":"address","internalType":"address"}],"stateMutability":"view"},{"type":"function","name":"allowance","inputs":[{"name":"owner","type":"address","internalType":"address"},{"name":"spender","type":"address","internalType":"address"}],"outputs":[{"name":"","type":"uint256","internalType":"uint256"}],"stateMutability":"view"},{"type":"function","name":"approve","inputs":[{"name":"spender","type":"address","internalType":"address"},{"name":"value","type":"uint256","internalType":"uint256"}],"outputs":[{"name":"","type":"bool","internalType":"bool"}],"stateMutability":"nonpayable"},{"type":"function","name":"balanceOf","inputs":[{"name":"account","type":"address","internalType":"address"}],"outputs":[{"name":"","type":"uint256","internalType":"uint256"}],"stateMutability":"view"},{"type":"function","name":"decimals","inputs":[],"outputs":[{"name":"","type":"uint8","internalType":"uint8"}],"stateMutability":"pure"},{"type":"function","name":"deposit","inputs":[],"outputs":[],"stateMutability":"payable"},{"type":"function","name":"depositTo","inputs":[{"name":"recipient","type":"address","internalType":"address"}],"outputs":[],"stateMutability":"payable"},{"type":"function","name":"name","inputs":[],"outputs":[{"name":"","type":"string","internalType":"string"}],"stateMutability":"view"},{"type":"function","name":"symbol","inputs":[],"outputs":[{"name":"","type":"string","internalType":"string"}],"stateMutability":"view"},{"type":"function","name":"totalBurned","inputs":[],"outputs":[{"name":"","type":"uint256","internalType":"uint256"}],"stateMutability":"view"},{"type":"function","name":"totalSupply","inputs":[],"outputs":[{"name":"","type":"uint256","internalType":"uint256"}],"stateMutability":"view"},{"type":"function","name":"transfer","inputs":[{"name":"to","type":"address","internalType":"address"},{"name":"value","type":"uint256","internalType":"uint256"}],"outputs":[{"name":"","type":"bool","internalType":"bool"}],"stateMutability":"nonpayable"},{"type":"function","name":"transferFrom","inputs":[{"name":"from","type":"address","internalType":"address"},{"name":"to","type":"address","internalType":"address"},{"name":"value","type":"uint256","internalType":"uint256"}],"outputs":[{"name":"","type":"bool","internalType":"bool"}],"stateMutability":"nonpayable"},{"type":"event","name":"Approval","inputs":[{"name":"owner","type":"address","indexed":true,"internalType":"address"},{"name":"spender","type":"address","indexed":true,"internalType":"address"},{"name":"value","type":"uint256","indexed":false,"internalType":"uint256"}],"anonymous":false},{"type":"event","name":"Burned","inputs":[{"name":"from","type":"address","indexed":true,"internalType":"address"},{"name":"amount","type":"uint256","indexed":false,"internalType":"uint256"}],"anonymous":false},{"type":"event","name":"Minted","inputs":[{"name":"to","type":"address","indexed":true,"internalType":"address"},{"name":"amount","type":"uint256","indexed":false,"internalType":"uint256"}],"anonymous":false},{"type":"event","name":"Transfer","inputs":[{"name":"from","type":"address","indexed":true,"internalType":"address"},{"name":"to","type":"address","indexed":true,"internalType":"address"},{"name":"value","type":"uint256","indexed":false,"internalType":"uint256"}],"anonymous":false},{"type":"error","name":"ERC20InsufficientAllowance","inputs":[{"name":"spender","type":"address","internalType":"address"},{"name":"allowance","type":"uint256","internalType":"uint256"},{"name":"needed","type":"uint256","internalType":"uint256"}]},{"type":"error","name":"ERC20InsufficientBalance","inputs":[{"name":"sender","type":"address","internalType":"address"},{"name":"balance","type":"uint256","internalType":"uint256"},{"name":"needed","type":"uint256","internalType":"uint256"}]},{"type":"error","name":"ERC20InvalidApprover","inputs":[{"name":"approver","type":"address","internalType":"address"}]},{"type":"error","name":"ERC20InvalidReceiver","inputs":[{"name":"receiver","type":"address","internalType":"address"}]},{"type":"error","name":"ERC20InvalidSender","inputs":[{"name":"sender","type":"address","internalType":"address"}]},{"type":"error","name":"ERC20InvalidSpender","inputs":[{"name":"spender","type":"address","internalType":"address"}]},{"type":"error","name":"ForwardFailed","inputs":[]},{"type":"error","name":"ZeroDeposit","inputs":[]}],"bytecode":{"object":"0x608060405234801561000f575f80fd5b506040805180820182526004808252630848aa8960e31b602080840182905284518086019095529184529083015290600361004a83826100f7565b50600461005782826100f7565b5050506101b6565b634e487b7160e01b5f52604160045260245ffd5b600181811c9082168061008757607f821691505b6020821081036100a557634e487b7160e01b5f52602260045260245ffd5b50919050565b601f8211156100f257805f5260205f20601f840160051c810160208510156100d05750805b601f840160051c820191505b818110156100ef575f81556001016100dc565b50505b505050565b81516001600160401b038111156101105761011061005f565b6101248161011e8454610073565b846100ab565b602080601f831160018114610157575f84156101405750858301515b5f19600386901b1c1916600185901b1785556101ae565b5f85815260208120601f198616915b8281101561018557888601518255948401946001909101908401610166565b50858210156101a257878501515f19600388901b60f8161c191681555b505060018460011b0185555b505050505050565b610975806101c35f395ff3fe6080604052600436106100c2575f3560e01c806370a082311161007c578063b760faf911610057578063b760faf91461021b578063d0e30db01461022e578063d89135cd14610236578063dd62ed3e1461024a575f80fd5b806370a08231146101b457806395d89b41146101e8578063a9059cbb146101fc575f80fd5b806306fdde03146100d6578063095ea7b31461010057806318160ddd1461012f57806323b872dd1461014d578063313ce5671461016c5780636a91d41a14610187575f80fd5b366100d2576100d03361028e565b005b5f80fd5b3480156100e1575f80fd5b506100ea6103b7565b6040516100f791906107cf565b60405180910390f35b34801561010b575f80fd5b5061011f61011a366004610836565b610447565b60405190151581526020016100f7565b34801561013a575f80fd5b506002545b6040519081526020016100f7565b348015610158575f80fd5b5061011f61016736600461085e565b610460565b348015610177575f80fd5b50604051601281526020016100f7565b348015610192575f80fd5b5061019c61dead81565b6040516001600160a01b0390911681526020016100f7565b3480156101bf575f80fd5b5061013f6101ce366004610897565b6001600160a01b03165f9081526020819052604090205490565b3480156101f3575f80fd5b506100ea610483565b348015610207575f80fd5b5061011f610216366004610836565b610492565b6100d0610229366004610897565b61049f565b6100d06104ac565b348015610241575f80fd5b5060055461013f565b348015610255575f80fd5b5061013f6102643660046108b7565b6001600160a01b039182165f90815260016020908152604080832093909416825291909152205490565b5f348082036102b0576040516356316e8760e01b815260040160405180910390fd5b6040515f9061dead9083908381818185875af1925050503d805f81146102f1576040519150601f19603f3d011682016040523d82523d5f602084013e6102f6565b606091505b50509050806103185760405163096dc0e160e01b815260040160405180910390fd5b61032284836104b8565b8160055f82825461033391906108e8565b909155505060405182815233907f696de425f79f4a40bc6d2122ca50507f0efbeabbff86a84871b7196ab8ea8df79060200160405180910390a2836001600160a01b03167f30385c845b448a36257a6a1716e6ad2e1bc2cbe333cde1e69fe849ad6511adfe836040516103a891815260200190565b60405180910390a25092915050565b6060600380546103c690610907565b80601f01602080910402602001604051908101604052809291908181526020018280546103f290610907565b801561043d5780601f106104145761010080835404028352916020019161043d565b820191905f5260205f20905b81548152906001019060200180831161042057829003601f168201915b5050505050905090565b5f336104548185856104f1565b60019150505b92915050565b5f3361046d858285610503565b61047885858561057e565b506001949350505050565b6060600480546103c690610907565b5f3361045481858561057e565b6104a88161028e565b5050565b6104b53361028e565b50565b6001600160a01b0382166104e65760405163ec442f0560e01b81525f60048201526024015b60405180910390fd5b6104a85f83836105d7565b6104fe83838360016106fd565b505050565b6001600160a01b038381165f908152600160209081526040808320938616835292905220545f198114610578578181101561056a57604051637dc7a0d960e11b81526001600160a01b038416600482015260248101829052604481018390526064016104dd565b61057884848484035f6106fd565b50505050565b6001600160a01b0383166105a757604051634b637e8f60e11b81525f60048201526024016104dd565b6001600160a01b0382166105d05760405163ec442f0560e01b81525f60048201526024016104dd565b6104fe8383835b6001600160a01b038316610601578060025f8282546105f691906108e8565b909155506106719050565b6001600160a01b0383165f90815260208190526040902054818110156106535760405163391434e360e21b81526001600160a01b038516600482015260248101829052604481018390526064016104dd565b6001600160a01b0384165f9081526020819052604090209082900390555b6001600160a01b03821661068d576002805482900390556106ab565b6001600160a01b0382165f9081526020819052604090208054820190555b816001600160a01b0316836001600160a01b03167fddf252ad1be2c89b69c2b068fc378daa952ba7f163c4a11628f55a4df523b3ef836040516106f091815260200190565b60405180910390a3505050565b6001600160a01b0384166107265760405163e602df0560e01b81525f60048201526024016104dd565b6001600160a01b03831661074f57604051634a1406b160e11b81525f60048201526024016104dd565b6001600160a01b038085165f908152600160209081526040808320938716835292905220829055801561057857826001600160a01b0316846001600160a01b03167f8c5be1e5ebec7d5bd14f71427d1e84f3dd0314c0f7b2291e5b200ac8c7c3b925846040516107c191815260200190565b60405180910390a350505050565b5f602080835283518060208501525f5b818110156107fb578581018301518582016040015282016107df565b505f604082860101526040601f19601f8301168501019250505092915050565b80356001600160a01b0381168114610831575f80fd5b919050565b5f8060408385031215610847575f80fd5b6108508361081b565b946020939093013593505050565b5f805f60608486031215610870575f80fd5b6108798461081b565b92506108876020850161081b565b9150604084013590509250925092565b5f602082840312156108a7575f80fd5b6108b08261081b565b9392505050565b5f80604083850312156108c8575f80fd5b6108d18361081b565b91506108df6020840161081b565b90509250929050565b8082018082111561045a57634e487b7160e01b5f52601160045260245ffd5b600181811c9082168061091b57607f821691505b60208210810361093957634e487b7160e01b5f52602260045260245ffd5b5091905056fea2646970667358221220ba95fa45b0df06f9c830c8cb984796d55935353874be313bcf3da937e01e2a6164736f6c63430008180033","linkReferences":{}},"methodIdentifiers":{"ETH_BURN_ADDRESS()":"6a91d41a","allowance(address,address)":"dd62ed3e","approve(address,uint256)":"095ea7b3","balanceOf(address)":"70a08231","decimals()":"313ce567","deposit()":"d0e30db0","depositTo(address)":"b760faf9","name()":"06fdde03","symbol()":"95d89b41","totalBurned()":"d89135cd","totalSupply()":"18160ddd","transfer(address,uint256)":"a9059cbb","transferFrom(address,address,uint256)":"23b872dd"},"id":33}